ARM GAS  C:\Users\CHUNGN~1\AppData\Local\Temp\ccK4RJCg.s 			page 1


   1              		.syntax unified
   2              		.cpu cortex-m0plus
   3              		.fpu softvfp
   4              		.eabi_attribute 20, 1
   5              		.eabi_attribute 21, 1
   6              		.eabi_attribute 23, 3
   7              		.eabi_attribute 24, 1
   8              		.eabi_attribute 25, 1
   9              		.eabi_attribute 26, 1
  10              		.eabi_attribute 30, 1
  11              		.eabi_attribute 34, 0
  12              		.eabi_attribute 18, 4
  13              		.thumb
  14              		.syntax unified
  15              		.file	"CapSense_ADC_Adc_INT.c"
  16              		.text
  17              	.Ltext0:
  18              		.cfi_sections	.debug_frame
  19              		.global	__aeabi_uidiv
  20              		.global	__aeabi_idiv
  21              		.section	.text.CapSense_ADC_AdcIntrHandler,"ax",%progbits
  22              		.align	2
  23              		.global	CapSense_ADC_AdcIntrHandler
  24              		.code	16
  25              		.thumb_func
  26              		.type	CapSense_ADC_AdcIntrHandler, %function
  27              	CapSense_ADC_AdcIntrHandler:
  28              	.LFB1:
  29              		.file 1 "Generated_Source\\PSoC4\\CapSense_ADC_Adc_INT.c"
   1:Generated_Source\PSoC4/CapSense_ADC_Adc_INT.c **** /***************************************************************************//**
   2:Generated_Source\PSoC4/CapSense_ADC_Adc_INT.c **** * \file CapSense_ADC_Adc_INT.c
   3:Generated_Source\PSoC4/CapSense_ADC_Adc_INT.c **** * \version 4.0
   4:Generated_Source\PSoC4/CapSense_ADC_Adc_INT.c **** *
   5:Generated_Source\PSoC4/CapSense_ADC_Adc_INT.c **** * \brief
   6:Generated_Source\PSoC4/CapSense_ADC_Adc_INT.c **** *   This file contains the source code for implementation of the CapSense 
   7:Generated_Source\PSoC4/CapSense_ADC_Adc_INT.c **** *   component ADC functionality Interrupt Service Routine (ISR).
   8:Generated_Source\PSoC4/CapSense_ADC_Adc_INT.c **** *
   9:Generated_Source\PSoC4/CapSense_ADC_Adc_INT.c **** * \see CapSense P4 v4.0 Datasheet
  10:Generated_Source\PSoC4/CapSense_ADC_Adc_INT.c **** * 
  11:Generated_Source\PSoC4/CapSense_ADC_Adc_INT.c **** *//*****************************************************************************
  12:Generated_Source\PSoC4/CapSense_ADC_Adc_INT.c **** * Copyright (2016-2017), Cypress Semiconductor Corporation.
  13:Generated_Source\PSoC4/CapSense_ADC_Adc_INT.c **** ********************************************************************************
  14:Generated_Source\PSoC4/CapSense_ADC_Adc_INT.c **** * This software is owned by Cypress Semiconductor Corporation (Cypress) and is
  15:Generated_Source\PSoC4/CapSense_ADC_Adc_INT.c **** * protected by and subject to worldwide patent protection (United States and
  16:Generated_Source\PSoC4/CapSense_ADC_Adc_INT.c **** * foreign), United States copyright laws and international treaty provisions.
  17:Generated_Source\PSoC4/CapSense_ADC_Adc_INT.c **** * Cypress hereby grants to licensee a personal, non-exclusive, non-transferable
  18:Generated_Source\PSoC4/CapSense_ADC_Adc_INT.c **** * license to copy, use, modify, create derivative works of, and compile the
  19:Generated_Source\PSoC4/CapSense_ADC_Adc_INT.c **** * Cypress Source Code and derivative works for the sole purpose of creating
  20:Generated_Source\PSoC4/CapSense_ADC_Adc_INT.c **** * custom software in support of licensee product to be used only in conjunction
  21:Generated_Source\PSoC4/CapSense_ADC_Adc_INT.c **** * with a Cypress integrated circuit as specified in the applicable agreement.
  22:Generated_Source\PSoC4/CapSense_ADC_Adc_INT.c **** * Any reproduction, modification, translation, compilation, or representation of
  23:Generated_Source\PSoC4/CapSense_ADC_Adc_INT.c **** * this software except as specified above is prohibited without the express
  24:Generated_Source\PSoC4/CapSense_ADC_Adc_INT.c **** * written permission of Cypress.
  25:Generated_Source\PSoC4/CapSense_ADC_Adc_INT.c **** *
  26:Generated_Source\PSoC4/CapSense_ADC_Adc_INT.c **** * Disclaimer: CYPRESS MAKES NO WARRANTY OF ANY KIND, EXPRESS OR IMPLIED, WITH
  27:Generated_Source\PSoC4/CapSense_ADC_Adc_INT.c **** * REGARD TO THIS MATERIAL, INCLUDING, BUT NOT LIMITED TO, THE IMPLIED
  28:Generated_Source\PSoC4/CapSense_ADC_Adc_INT.c **** * WARRANTIES OF MERCHANTABILITY AND FITNESS FOR A PARTICULAR PURPOSE.
ARM GAS  C:\Users\CHUNGN~1\AppData\Local\Temp\ccK4RJCg.s 			page 2


  29:Generated_Source\PSoC4/CapSense_ADC_Adc_INT.c **** * Cypress reserves the right to make changes without further notice to the
  30:Generated_Source\PSoC4/CapSense_ADC_Adc_INT.c **** * materials described herein. Cypress does not assume any liability arising out
  31:Generated_Source\PSoC4/CapSense_ADC_Adc_INT.c **** * of the application or use of any product or circuit described herein. Cypress
  32:Generated_Source\PSoC4/CapSense_ADC_Adc_INT.c **** * does not authorize its products for use as critical components in life-support
  33:Generated_Source\PSoC4/CapSense_ADC_Adc_INT.c **** * systems where a malfunction or failure may reasonably be expected to result in
  34:Generated_Source\PSoC4/CapSense_ADC_Adc_INT.c **** * significant injury to the user. The inclusion of Cypress' product in a life-
  35:Generated_Source\PSoC4/CapSense_ADC_Adc_INT.c **** * support systems application implies that the manufacturer assumes all risk of
  36:Generated_Source\PSoC4/CapSense_ADC_Adc_INT.c **** * such use and in doing so indemnifies Cypress against all charges. Use may be
  37:Generated_Source\PSoC4/CapSense_ADC_Adc_INT.c **** * limited by and subject to the applicable Cypress software license agreement.
  38:Generated_Source\PSoC4/CapSense_ADC_Adc_INT.c **** *******************************************************************************/
  39:Generated_Source\PSoC4/CapSense_ADC_Adc_INT.c **** #include "cytypes.h"
  40:Generated_Source\PSoC4/CapSense_ADC_Adc_INT.c **** #include "cyfitter.h"
  41:Generated_Source\PSoC4/CapSense_ADC_Adc_INT.c **** #include "CyLib.h"
  42:Generated_Source\PSoC4/CapSense_ADC_Adc_INT.c **** #include "CapSense_ADC_Adc.h"
  43:Generated_Source\PSoC4/CapSense_ADC_Adc_INT.c **** #include "cyapicallbacks.h"
  44:Generated_Source\PSoC4/CapSense_ADC_Adc_INT.c **** 
  45:Generated_Source\PSoC4/CapSense_ADC_Adc_INT.c **** extern uint16 CapSense_ADC_AdcVref_mV;
  46:Generated_Source\PSoC4/CapSense_ADC_Adc_INT.c **** 
  47:Generated_Source\PSoC4/CapSense_ADC_Adc_INT.c **** /**
  48:Generated_Source\PSoC4/CapSense_ADC_Adc_INT.c **** * \if SECTION_ADC_INTERRUPT
  49:Generated_Source\PSoC4/CapSense_ADC_Adc_INT.c **** * \addtogroup group_capsense_interrupt
  50:Generated_Source\PSoC4/CapSense_ADC_Adc_INT.c **** * \{
  51:Generated_Source\PSoC4/CapSense_ADC_Adc_INT.c **** */
  52:Generated_Source\PSoC4/CapSense_ADC_Adc_INT.c **** 
  53:Generated_Source\PSoC4/CapSense_ADC_Adc_INT.c **** #if (CapSense_ADC_ADC_EN)    
  54:Generated_Source\PSoC4/CapSense_ADC_Adc_INT.c ****     
  55:Generated_Source\PSoC4/CapSense_ADC_Adc_INT.c **** /*******************************************************************************
  56:Generated_Source\PSoC4/CapSense_ADC_Adc_INT.c **** * Function Name: CapSense_ADC_AdcIntrHandler
  57:Generated_Source\PSoC4/CapSense_ADC_Adc_INT.c **** ****************************************************************************//**
  58:Generated_Source\PSoC4/CapSense_ADC_Adc_INT.c **** *
  59:Generated_Source\PSoC4/CapSense_ADC_Adc_INT.c **** * \brief
  60:Generated_Source\PSoC4/CapSense_ADC_Adc_INT.c **** *   This is an internal ISR function for the ADC implementation.
  61:Generated_Source\PSoC4/CapSense_ADC_Adc_INT.c **** *
  62:Generated_Source\PSoC4/CapSense_ADC_Adc_INT.c **** * \details
  63:Generated_Source\PSoC4/CapSense_ADC_Adc_INT.c **** *   This ISR is triggered after a measurement completes or during the calibration
  64:Generated_Source\PSoC4/CapSense_ADC_Adc_INT.c **** *   phases.
  65:Generated_Source\PSoC4/CapSense_ADC_Adc_INT.c **** *   
  66:Generated_Source\PSoC4/CapSense_ADC_Adc_INT.c **** *   To use the entry or exit callbacks, define
  67:Generated_Source\PSoC4/CapSense_ADC_Adc_INT.c **** *   CapSense_ADC_ADC_[ENTRY|EXIT]_CALLBACK
  68:Generated_Source\PSoC4/CapSense_ADC_Adc_INT.c **** *   and define the corresponding function, 
  69:Generated_Source\PSoC4/CapSense_ADC_Adc_INT.c **** *   CapSense_ADC_Adc[Entry|Exit]Callback().
  70:Generated_Source\PSoC4/CapSense_ADC_Adc_INT.c **** *
  71:Generated_Source\PSoC4/CapSense_ADC_Adc_INT.c **** *******************************************************************************/
  72:Generated_Source\PSoC4/CapSense_ADC_Adc_INT.c **** CY_ISR(CapSense_ADC_AdcIntrHandler)
  73:Generated_Source\PSoC4/CapSense_ADC_Adc_INT.c **** {
  30              		.loc 1 73 0
  31              		.cfi_startproc
  32              		@ args = 0, pretend = 0, frame = 0
  33              		@ frame_needed = 0, uses_anonymous_args = 0
  34 0000 F0B5     		push	{r4, r5, r6, r7, lr}
  35              		.cfi_def_cfa_offset 20
  36              		.cfi_offset 4, -20
  37              		.cfi_offset 5, -16
  38              		.cfi_offset 6, -12
  39              		.cfi_offset 7, -8
  40              		.cfi_offset 14, -4
  41 0002 4746     		mov	r7, r8
ARM GAS  C:\Users\CHUNGN~1\AppData\Local\Temp\ccK4RJCg.s 			page 3


  42 0004 80B4     		push	{r7}
  43              		.cfi_def_cfa_offset 24
  44              		.cfi_offset 8, -24
  74:Generated_Source\PSoC4/CapSense_ADC_Adc_INT.c ****     static uint16 tVssa2Vref;
  75:Generated_Source\PSoC4/CapSense_ADC_Adc_INT.c ****     static uint16 tFull;
  76:Generated_Source\PSoC4/CapSense_ADC_Adc_INT.c ****     static uint16 vMax_mV;
  77:Generated_Source\PSoC4/CapSense_ADC_Adc_INT.c **** 
  78:Generated_Source\PSoC4/CapSense_ADC_Adc_INT.c ****     uint32 tmpResult;
  79:Generated_Source\PSoC4/CapSense_ADC_Adc_INT.c ****     uint32 polarity;
  80:Generated_Source\PSoC4/CapSense_ADC_Adc_INT.c ****     uint8 adcFsmStatus;
  81:Generated_Source\PSoC4/CapSense_ADC_Adc_INT.c ****     uint8 tmpChId;
  82:Generated_Source\PSoC4/CapSense_ADC_Adc_INT.c **** 
  83:Generated_Source\PSoC4/CapSense_ADC_Adc_INT.c ****     #if (CapSense_ADC_ADC_FULLRANGE_MODE == CapSense_ADC_ADC_MEASURE_MODE)
  84:Generated_Source\PSoC4/CapSense_ADC_Adc_INT.c ****         uint8  interruptState;
  85:Generated_Source\PSoC4/CapSense_ADC_Adc_INT.c ****         uint32 newRegValue;
  86:Generated_Source\PSoC4/CapSense_ADC_Adc_INT.c **** 
  87:Generated_Source\PSoC4/CapSense_ADC_Adc_INT.c ****         static uint16 tVdda2Vref;
  88:Generated_Source\PSoC4/CapSense_ADC_Adc_INT.c ****         static uint16 tRecover;
  89:Generated_Source\PSoC4/CapSense_ADC_Adc_INT.c ****     #endif /* (CapSense_ADC_ADC_FULLRANGE_MODE == CapSense_ADC_ADC_MEASURE_MODE) */
  90:Generated_Source\PSoC4/CapSense_ADC_Adc_INT.c **** 
  91:Generated_Source\PSoC4/CapSense_ADC_Adc_INT.c ****     #ifdef CapSense_ADC_ADC_ENTRY_CALLBACK
  92:Generated_Source\PSoC4/CapSense_ADC_Adc_INT.c ****         CapSense_ADC_AdcEntryCallback();
  93:Generated_Source\PSoC4/CapSense_ADC_Adc_INT.c ****     #endif /* CapSense_ADC_ADC_ENTRY_CALLBACK */
  94:Generated_Source\PSoC4/CapSense_ADC_Adc_INT.c **** 
  95:Generated_Source\PSoC4/CapSense_ADC_Adc_INT.c ****     /* Un-request the interrupt. */
  96:Generated_Source\PSoC4/CapSense_ADC_Adc_INT.c ****     CY_SET_REG32(CapSense_ADC_AdcINTR_PTR, CapSense_ADC_AdcINTERRUPT_SET);
  45              		.loc 1 96 0
  46 0006 8022     		movs	r2, #128
  47 0008 5200     		lsls	r2, r2, #1
  48 000a 5D4B     		ldr	r3, .L14
  49 000c 1A60     		str	r2, [r3]
  97:Generated_Source\PSoC4/CapSense_ADC_Adc_INT.c ****     CY_SET_REG32(CapSense_ADC_AdcINTR_MASK_PTR, CapSense_ADC_AdcINTERRUPT_CLEAR);
  50              		.loc 1 97 0
  51 000e 0022     		movs	r2, #0
  52 0010 5C4B     		ldr	r3, .L14+4
  53 0012 1A60     		str	r2, [r3]
  98:Generated_Source\PSoC4/CapSense_ADC_Adc_INT.c ****     
  99:Generated_Source\PSoC4/CapSense_ADC_Adc_INT.c ****     /* Read ADC result and check for ADC_ABORT or ADC_OVERFLOW flags */
 100:Generated_Source\PSoC4/CapSense_ADC_Adc_INT.c ****     tmpResult = CY_GET_REG32(CapSense_ADC_AdcADC_RES_PTR);
  54              		.loc 1 100 0
  55 0014 5C4B     		ldr	r3, .L14+8
  56 0016 1C68     		ldr	r4, [r3]
  57              	.LVL0:
 101:Generated_Source\PSoC4/CapSense_ADC_Adc_INT.c ****     if (0uL == (tmpResult & CapSense_ADC_AdcADC_RES_ABORT_MASK))
  58              		.loc 1 101 0
  59 0018 002C     		cmp	r4, #0
  60 001a 00DA     		bge	.LCB26
  61 001c AAE0     		b	.L2	@long jump
  62              	.LCB26:
 102:Generated_Source\PSoC4/CapSense_ADC_Adc_INT.c ****     {
 103:Generated_Source\PSoC4/CapSense_ADC_Adc_INT.c ****         if (0uL == (tmpResult & CapSense_ADC_AdcADC_RES_OVERFLOW_MASK))
  63              		.loc 1 103 0
  64 001e 6300     		lsls	r3, r4, #1
  65 0020 00D5     		bpl	.LCB30
  66 0022 A3E0     		b	.L3	@long jump
  67              	.LCB30:
 104:Generated_Source\PSoC4/CapSense_ADC_Adc_INT.c ****         {
ARM GAS  C:\Users\CHUNGN~1\AppData\Local\Temp\ccK4RJCg.s 			page 4


 105:Generated_Source\PSoC4/CapSense_ADC_Adc_INT.c ****             /* Read ADC status, define polarity, value and ChId */
 106:Generated_Source\PSoC4/CapSense_ADC_Adc_INT.c ****             adcFsmStatus = (uint8)(CapSense_ADC_dsRam.adcStatus & CapSense_ADC_AdcSTATUS_FSM_MASK);
  68              		.loc 1 106 0
  69 0024 594B     		ldr	r3, .L14+12
  70 0026 187F     		ldrb	r0, [r3, #28]
  71 0028 0F23     		movs	r3, #15
  72 002a 0200     		movs	r2, r0
  73 002c 9A43     		bics	r2, r3
  74 002e 1300     		movs	r3, r2
  75              	.LVL1:
 107:Generated_Source\PSoC4/CapSense_ADC_Adc_INT.c ****             /* Select the polarity bit */
 108:Generated_Source\PSoC4/CapSense_ADC_Adc_INT.c ****             polarity = tmpResult & CapSense_ADC_AdcADC_RES_HSCMPPOL_MASK;
  76              		.loc 1 108 0
  77 0030 8022     		movs	r2, #128
  78 0032 5202     		lsls	r2, r2, #9
  79 0034 2240     		ands	r2, r4
  80 0036 1100     		movs	r1, r2
  81              	.LVL2:
 109:Generated_Source\PSoC4/CapSense_ADC_Adc_INT.c ****             /* Select the result value */
 110:Generated_Source\PSoC4/CapSense_ADC_Adc_INT.c ****             tmpResult &= CapSense_ADC_AdcADC_RES_VALUE_MASK;
  82              		.loc 1 110 0
  83 0038 2204     		lsls	r2, r4, #16
  84 003a 120C     		lsrs	r2, r2, #16
  85              	.LVL3:
 111:Generated_Source\PSoC4/CapSense_ADC_Adc_INT.c ****             tmpChId = CapSense_ADC_dsRam.adcStatus & (uint8)(CapSense_ADC_AdcSTATUS_LASTCHAN_MASK);
  86              		.loc 1 111 0
  87 003c 0F25     		movs	r5, #15
  88 003e 0540     		ands	r5, r0
  89              	.LVL4:
 112:Generated_Source\PSoC4/CapSense_ADC_Adc_INT.c **** 
 113:Generated_Source\PSoC4/CapSense_ADC_Adc_INT.c ****             /* ADC could have been converting or calibrating; handle each differently. */
 114:Generated_Source\PSoC4/CapSense_ADC_Adc_INT.c ****             switch (adcFsmStatus)
  90              		.loc 1 114 0
  91 0040 202B     		cmp	r3, #32
  92 0042 51D0     		beq	.L5
  93 0044 02D8     		bhi	.L6
  94 0046 102B     		cmp	r3, #16
  95 0048 41D0     		beq	.L7
  96 004a 96E0     		b	.L1
  97              	.L6:
  98 004c 302B     		cmp	r3, #48
  99 004e 64D0     		beq	.L8
 100 0050 402B     		cmp	r3, #64
 101 0052 00D0     		beq	.LCB64
 102 0054 91E0     		b	.L1	@long jump
 103              	.LCB64:
 115:Generated_Source\PSoC4/CapSense_ADC_Adc_INT.c ****             {
 116:Generated_Source\PSoC4/CapSense_ADC_Adc_INT.c ****             case CapSense_ADC_AdcSTATUS_CONVERTING:
 117:Generated_Source\PSoC4/CapSense_ADC_Adc_INT.c ****                 /*
 118:Generated_Source\PSoC4/CapSense_ADC_Adc_INT.c ****                 * After the converting will calculate an ADC result in mV depending on
 119:Generated_Source\PSoC4/CapSense_ADC_Adc_INT.c ****                 * sourcing or sinking mode. Checks for a saturation in all modes.
 120:Generated_Source\PSoC4/CapSense_ADC_Adc_INT.c ****                 */
 121:Generated_Source\PSoC4/CapSense_ADC_Adc_INT.c ****                 /* HSCMP polarity is 0:sink, 1:source */
 122:Generated_Source\PSoC4/CapSense_ADC_Adc_INT.c ****                 if(0uL != polarity) /* Sourcing */
 104              		.loc 1 122 0
 105 0056 0029     		cmp	r1, #0
 106 0058 0ED0     		beq	.L10
ARM GAS  C:\Users\CHUNGN~1\AppData\Local\Temp\ccK4RJCg.s 			page 5


 123:Generated_Source\PSoC4/CapSense_ADC_Adc_INT.c ****                 {
 124:Generated_Source\PSoC4/CapSense_ADC_Adc_INT.c ****                     /* Saturate result at tVssa2Vref */
 125:Generated_Source\PSoC4/CapSense_ADC_Adc_INT.c ****                     tmpResult = (tmpResult > (uint32)tVssa2Vref) ? (uint32)tVssa2Vref : tmpResult;
 107              		.loc 1 125 0
 108 005a 4D4B     		ldr	r3, .L14+16
 109              	.LVL5:
 110 005c 1B88     		ldrh	r3, [r3]
 111 005e 9A42     		cmp	r2, r3
 112 0060 00D9     		bls	.L11
 113 0062 1A00     		movs	r2, r3
 114              	.LVL6:
 115              	.L11:
 126:Generated_Source\PSoC4/CapSense_ADC_Adc_INT.c ****                     /* Scale result to Resolution range with rounding*/
 127:Generated_Source\PSoC4/CapSense_ADC_Adc_INT.c ****                     tmpResult = ((((uint32)tVssa2Vref - tmpResult) * CapSense_ADC_AdcRES_MAX) +
 116              		.loc 1 127 0
 117 0064 9A1A     		subs	r2, r3, r2
 118              	.LVL7:
 119 0066 9002     		lsls	r0, r2, #10
 120              	.LVL8:
 121 0068 801A     		subs	r0, r0, r2
 128:Generated_Source\PSoC4/CapSense_ADC_Adc_INT.c ****                                  ((uint32)tFull >> 1uL)) / (uint32)tFull;
 122              		.loc 1 128 0
 123 006a 494B     		ldr	r3, .L14+16
 124 006c 5988     		ldrh	r1, [r3, #2]
 125              	.LVL9:
 126 006e 4C08     		lsrs	r4, r1, #1
 127              	.LVL10:
 127:Generated_Source\PSoC4/CapSense_ADC_Adc_INT.c ****                                  ((uint32)tFull >> 1uL)) / (uint32)tFull;
 128              		.loc 1 127 0
 129 0070 0019     		adds	r0, r0, r4
 130 0072 FFF7FEFF 		bl	__aeabi_uidiv
 131              	.LVL11:
 132 0076 16E0     		b	.L12
 133              	.LVL12:
 134              	.L10:
 129:Generated_Source\PSoC4/CapSense_ADC_Adc_INT.c ****                 }
 130:Generated_Source\PSoC4/CapSense_ADC_Adc_INT.c ****                 else /* Sinking */
 131:Generated_Source\PSoC4/CapSense_ADC_Adc_INT.c ****                 {
 132:Generated_Source\PSoC4/CapSense_ADC_Adc_INT.c ****                     #if (CapSense_ADC_ADC_FULLRANGE_MODE == CapSense_ADC_ADC_MEASURE_MODE)
 133:Generated_Source\PSoC4/CapSense_ADC_Adc_INT.c ****                         /* Scale result with sink/source mismatch with rounding */
 134:Generated_Source\PSoC4/CapSense_ADC_Adc_INT.c ****                         tmpResult = (((uint32)((uint32)tRecover << 1u) * tmpResult) + ((uint32)tVss
 135              		.loc 1 134 0
 136 0078 454E     		ldr	r6, .L14+16
 137 007a B088     		ldrh	r0, [r6, #4]
 138 007c 4000     		lsls	r0, r0, #1
 139 007e 4243     		muls	r2, r0
 140              	.LVL13:
 141 0080 3488     		ldrh	r4, [r6]
 142              	.LVL14:
 143 0082 6008     		lsrs	r0, r4, #1
 144 0084 1018     		adds	r0, r2, r0
 145 0086 2100     		movs	r1, r4
 146              	.LVL15:
 147 0088 FFF7FEFF 		bl	__aeabi_uidiv
 148              	.LVL16:
 135:Generated_Source\PSoC4/CapSense_ADC_Adc_INT.c ****                         /* Saturate result at t_Vdda2Vref*/
 136:Generated_Source\PSoC4/CapSense_ADC_Adc_INT.c ****                         tmpResult = (tmpResult > (uint32)tVdda2Vref) ? (uint32)tVdda2Vref : tmpResu
ARM GAS  C:\Users\CHUNGN~1\AppData\Local\Temp\ccK4RJCg.s 			page 6


 149              		.loc 1 136 0
 150 008c F388     		ldrh	r3, [r6, #6]
 151 008e 9842     		cmp	r0, r3
 152 0090 00D9     		bls	.L13
 153 0092 1800     		movs	r0, r3
 154              	.LVL17:
 155              	.L13:
 137:Generated_Source\PSoC4/CapSense_ADC_Adc_INT.c ****                         /* Scale result to Resolution range with rounding */
 138:Generated_Source\PSoC4/CapSense_ADC_Adc_INT.c ****                         tmpResult = ((((uint32)tVssa2Vref + tmpResult) * CapSense_ADC_AdcRES_MAX)  
 156              		.loc 1 138 0
 157 0094 2018     		adds	r0, r4, r0
 158              	.LVL18:
 159 0096 8302     		lsls	r3, r0, #10
 160 0098 181A     		subs	r0, r3, r0
 139:Generated_Source\PSoC4/CapSense_ADC_Adc_INT.c ****                                      ((uint32)tFull >> 1uL)) / (uint32)tFull;
 161              		.loc 1 139 0
 162 009a 3D4B     		ldr	r3, .L14+16
 163 009c 5988     		ldrh	r1, [r3, #2]
 164 009e 4B08     		lsrs	r3, r1, #1
 138:Generated_Source\PSoC4/CapSense_ADC_Adc_INT.c ****                                      ((uint32)tFull >> 1uL)) / (uint32)tFull;
 165              		.loc 1 138 0
 166 00a0 C018     		adds	r0, r0, r3
 167 00a2 FFF7FEFF 		bl	__aeabi_uidiv
 168              	.LVL19:
 169              	.L12:
 140:Generated_Source\PSoC4/CapSense_ADC_Adc_INT.c ****                     #else /* (CapSense_ADC_ADC_FULLRANGE_MODE == CapSense_ADC_ADC_MEASURE_MODE) */
 141:Generated_Source\PSoC4/CapSense_ADC_Adc_INT.c ****                         /* In vref mode, we are not supposed to be sinking. Saturate */
 142:Generated_Source\PSoC4/CapSense_ADC_Adc_INT.c ****                         tmpResult = (uint32)tVssa2Vref * CapSense_ADC_AdcRES_MAX / (uint32)tFull;
 143:Generated_Source\PSoC4/CapSense_ADC_Adc_INT.c ****                     #endif /* (CapSense_ADC_ADC_FULLRANGE_MODE == CapSense_ADC_ADC_MEASURE_MODE) */
 144:Generated_Source\PSoC4/CapSense_ADC_Adc_INT.c ****                 }
 145:Generated_Source\PSoC4/CapSense_ADC_Adc_INT.c ****                 /* Store ADC result code */
 146:Generated_Source\PSoC4/CapSense_ADC_Adc_INT.c ****                 CapSense_ADC_dsRam.adcCode [tmpChId] = (uint16)(tmpResult);        
 170              		.loc 1 146 0
 171 00a6 394E     		ldr	r6, .L14+12
 172 00a8 2C00     		movs	r4, r5
 173 00aa 0C34     		adds	r4, r4, #12
 174 00ac 6400     		lsls	r4, r4, #1
 175 00ae 3319     		adds	r3, r6, r4
 176 00b0 5880     		strh	r0, [r3, #2]
 147:Generated_Source\PSoC4/CapSense_ADC_Adc_INT.c ****                 /* Scale result to mV with rounding and store it */
 148:Generated_Source\PSoC4/CapSense_ADC_Adc_INT.c ****                 tmpResult = ((uint32)vMax_mV * tmpResult) / CapSense_ADC_AdcRES_MAX;
 177              		.loc 1 148 0
 178 00b2 374B     		ldr	r3, .L14+16
 179 00b4 1B89     		ldrh	r3, [r3, #8]
 180 00b6 5843     		muls	r0, r3
 181              	.LVL20:
 182 00b8 3649     		ldr	r1, .L14+20
 183 00ba FFF7FEFF 		bl	__aeabi_uidiv
 184              	.LVL21:
 149:Generated_Source\PSoC4/CapSense_ADC_Adc_INT.c ****                 CapSense_ADC_dsRam.adcResult[tmpChId] = (uint16)(tmpResult);
 185              		.loc 1 149 0
 186 00be 3053     		strh	r0, [r6, r4]
 150:Generated_Source\PSoC4/CapSense_ADC_Adc_INT.c ****                 CapSense_ADC_SetAdcChannel(tmpChId, CapSense_ADC_AdcCHAN_DISCONNECT);
 187              		.loc 1 150 0
 188 00c0 0021     		movs	r1, #0
 189 00c2 2800     		movs	r0, r5
 190              	.LVL22:
ARM GAS  C:\Users\CHUNGN~1\AppData\Local\Temp\ccK4RJCg.s 			page 7


 191 00c4 FFF7FEFF 		bl	CapSense_ADC_SetAdcChannel
 192              	.LVL23:
 151:Generated_Source\PSoC4/CapSense_ADC_Adc_INT.c ****                 CapSense_ADC_dsRam.adcStatus = CapSense_ADC_AdcSTATUS_IDLE;
 193              		.loc 1 151 0
 194 00c8 0023     		movs	r3, #0
 195 00ca 3377     		strb	r3, [r6, #28]
 152:Generated_Source\PSoC4/CapSense_ADC_Adc_INT.c ****                 break;
 196              		.loc 1 152 0
 197 00cc 55E0     		b	.L1
 198              	.LVL24:
 199              	.L7:
 153:Generated_Source\PSoC4/CapSense_ADC_Adc_INT.c **** 
 154:Generated_Source\PSoC4/CapSense_ADC_Adc_INT.c ****             case CapSense_ADC_AdcSTATUS_CALIBPH1:
 155:Generated_Source\PSoC4/CapSense_ADC_Adc_INT.c ****                 /*
 156:Generated_Source\PSoC4/CapSense_ADC_Adc_INT.c ****                 * After the calibration phase 1 will define a time to charge Cref1 and Cref2 from V
 157:Generated_Source\PSoC4/CapSense_ADC_Adc_INT.c ****                 * clock cycles. In the full-range mode starts the next calibration phase 2. In the 
 158:Generated_Source\PSoC4/CapSense_ADC_Adc_INT.c ****                 * and recalibrate Idac if necessary.
 159:Generated_Source\PSoC4/CapSense_ADC_Adc_INT.c ****                 */
 160:Generated_Source\PSoC4/CapSense_ADC_Adc_INT.c ****                 tVssa2Vref = (uint16)tmpResult;
 200              		.loc 1 160 0
 201 00ce 304B     		ldr	r3, .L14+16
 202              	.LVL25:
 203 00d0 1C80     		strh	r4, [r3]
 161:Generated_Source\PSoC4/CapSense_ADC_Adc_INT.c **** 
 162:Generated_Source\PSoC4/CapSense_ADC_Adc_INT.c ****                 #if (CapSense_ADC_ADC_FULLRANGE_MODE == CapSense_ADC_ADC_MEASURE_MODE)
 163:Generated_Source\PSoC4/CapSense_ADC_Adc_INT.c ****                     /* Full range mode */
 164:Generated_Source\PSoC4/CapSense_ADC_Adc_INT.c ****                     CapSense_ADC_dsRam.adcStatus = CapSense_ADC_AdcSTATUS_CALIBPH2;
 204              		.loc 1 164 0
 205 00d2 2022     		movs	r2, #32
 206              	.LVL26:
 207 00d4 2D4B     		ldr	r3, .L14+12
 208 00d6 1A77     		strb	r2, [r3, #28]
 165:Generated_Source\PSoC4/CapSense_ADC_Adc_INT.c ****                     /* Un-mask ADC_RES interrupt (enable interrupt) */
 166:Generated_Source\PSoC4/CapSense_ADC_Adc_INT.c ****                     CY_SET_REG32(CapSense_ADC_AdcINTR_MASK_PTR, CapSense_ADC_AdcINTERRUPT_SET);
 209              		.loc 1 166 0
 210 00d8 E032     		adds	r2, r2, #224
 211 00da 2A4B     		ldr	r3, .L14+4
 212 00dc 1A60     		str	r2, [r3]
 167:Generated_Source\PSoC4/CapSense_ADC_Adc_INT.c ****                     CapSense_ADC_StartAdcFSM(CapSense_ADC_AdcMEASMODE_VREFBY2);
 213              		.loc 1 167 0
 214 00de 8020     		movs	r0, #128
 215              	.LVL27:
 216 00e0 8002     		lsls	r0, r0, #10
 217 00e2 FFF7FEFF 		bl	CapSense_ADC_StartAdcFSM
 218              	.LVL28:
 168:Generated_Source\PSoC4/CapSense_ADC_Adc_INT.c ****                     
 169:Generated_Source\PSoC4/CapSense_ADC_Adc_INT.c ****                 #else /* (CapSense_ADC_ADC_FULLRANGE_MODE == CapSense_ADC_ADC_MEASURE_MODE) */
 170:Generated_Source\PSoC4/CapSense_ADC_Adc_INT.c ****                     /* Vref range mode */
 171:Generated_Source\PSoC4/CapSense_ADC_Adc_INT.c ****                     vMax_mV = CapSense_ADC_AdcVref_mV;
 172:Generated_Source\PSoC4/CapSense_ADC_Adc_INT.c ****                     tFull = tVssa2Vref;
 173:Generated_Source\PSoC4/CapSense_ADC_Adc_INT.c ****                     CapSense_ADC_dsRam.adcStatus = CapSense_ADC_AdcSTATUS_IDLE;
 174:Generated_Source\PSoC4/CapSense_ADC_Adc_INT.c ****                     
 175:Generated_Source\PSoC4/CapSense_ADC_Adc_INT.c ****                 #endif /* (CapSense_ADC_ADC_FULLRANGE_MODE == CapSense_ADC_ADC_MEASURE_MODE) */
 176:Generated_Source\PSoC4/CapSense_ADC_Adc_INT.c **** 
 177:Generated_Source\PSoC4/CapSense_ADC_Adc_INT.c ****                 break;
 219              		.loc 1 177 0
 220 00e6 48E0     		b	.L1
ARM GAS  C:\Users\CHUNGN~1\AppData\Local\Temp\ccK4RJCg.s 			page 8


 221              	.LVL29:
 222              	.L5:
 178:Generated_Source\PSoC4/CapSense_ADC_Adc_INT.c **** 
 179:Generated_Source\PSoC4/CapSense_ADC_Adc_INT.c ****             
 180:Generated_Source\PSoC4/CapSense_ADC_Adc_INT.c ****             /* In vref mode not need further calibration */
 181:Generated_Source\PSoC4/CapSense_ADC_Adc_INT.c ****             #if (CapSense_ADC_ADC_FULLRANGE_MODE == CapSense_ADC_ADC_MEASURE_MODE)
 182:Generated_Source\PSoC4/CapSense_ADC_Adc_INT.c **** 
 183:Generated_Source\PSoC4/CapSense_ADC_Adc_INT.c ****                 case CapSense_ADC_AdcSTATUS_CALIBPH2:
 184:Generated_Source\PSoC4/CapSense_ADC_Adc_INT.c ****                     /*
 185:Generated_Source\PSoC4/CapSense_ADC_Adc_INT.c ****                     * After the calibration phase 2 will define a time to charge Cref1 and Cref2 to
 186:Generated_Source\PSoC4/CapSense_ADC_Adc_INT.c ****                     * a discharging them by a sinking from Vref during tVssa2Vref/2 time. This rech
 187:Generated_Source\PSoC4/CapSense_ADC_Adc_INT.c ****                     * and is proporional to an Idac_sourcing/Idac_sinking mismatch. Then charges ca
 188:Generated_Source\PSoC4/CapSense_ADC_Adc_INT.c ****                     * the next calibration phase 3.
 189:Generated_Source\PSoC4/CapSense_ADC_Adc_INT.c ****                     */
 190:Generated_Source\PSoC4/CapSense_ADC_Adc_INT.c ****                     tRecover = (uint16)tmpResult;
 223              		.loc 1 190 0
 224 00e8 294B     		ldr	r3, .L14+16
 225              	.LVL30:
 226 00ea 9C80     		strh	r4, [r3, #4]
 191:Generated_Source\PSoC4/CapSense_ADC_Adc_INT.c ****                     
 192:Generated_Source\PSoC4/CapSense_ADC_Adc_INT.c ****                     /* Disconnect amuxbusB, Connect VDDA to csdbusB */
 193:Generated_Source\PSoC4/CapSense_ADC_Adc_INT.c ****                     interruptState = CyEnterCriticalSection();
 227              		.loc 1 193 0
 228 00ec FFF7FEFF 		bl	CyEnterCriticalSection
 229              	.LVL31:
 194:Generated_Source\PSoC4/CapSense_ADC_Adc_INT.c ****                     newRegValue = CY_GET_REG32(CapSense_ADC_AdcSW_BYP_SEL_PTR);
 230              		.loc 1 194 0
 231 00f0 294A     		ldr	r2, .L14+24
 232 00f2 1168     		ldr	r1, [r2]
 233              	.LVL32:
 195:Generated_Source\PSoC4/CapSense_ADC_Adc_INT.c ****                     newRegValue &= (uint32)(~CapSense_ADC_AdcSW_BYP_DEFAULT);
 234              		.loc 1 195 0
 235 00f4 294B     		ldr	r3, .L14+28
 236 00f6 0B40     		ands	r3, r1
 237              	.LVL33:
 196:Generated_Source\PSoC4/CapSense_ADC_Adc_INT.c ****                     CY_SET_REG32(CapSense_ADC_AdcSW_BYP_SEL_PTR, newRegValue);
 238              		.loc 1 196 0
 239 00f8 1360     		str	r3, [r2]
 197:Generated_Source\PSoC4/CapSense_ADC_Adc_INT.c ****                     CyExitCriticalSection(interruptState);
 240              		.loc 1 197 0
 241 00fa FFF7FEFF 		bl	CyExitCriticalSection
 242              	.LVL34:
 198:Generated_Source\PSoC4/CapSense_ADC_Adc_INT.c ****                     
 199:Generated_Source\PSoC4/CapSense_ADC_Adc_INT.c ****                     CY_SET_REG32(CapSense_ADC_AdcSW_SHIELD_SEL_PTR, CapSense_ADC_AdcSW_SHIELD_VDDA2
 243              		.loc 1 199 0
 244 00fe 8023     		movs	r3, #128
 245              	.LVL35:
 246 0100 5B00     		lsls	r3, r3, #1
 247              	.LVL36:
 248 0102 274A     		ldr	r2, .L14+32
 249 0104 1360     		str	r3, [r2]
 200:Generated_Source\PSoC4/CapSense_ADC_Adc_INT.c **** 
 201:Generated_Source\PSoC4/CapSense_ADC_Adc_INT.c ****                     CapSense_ADC_dsRam.adcStatus = CapSense_ADC_AdcSTATUS_CALIBPH3;
 250              		.loc 1 201 0
 251 0106 3021     		movs	r1, #48
 252 0108 204A     		ldr	r2, .L14+12
 253 010a 1177     		strb	r1, [r2, #28]
ARM GAS  C:\Users\CHUNGN~1\AppData\Local\Temp\ccK4RJCg.s 			page 9


 202:Generated_Source\PSoC4/CapSense_ADC_Adc_INT.c ****                     /* Enable interrupt */
 203:Generated_Source\PSoC4/CapSense_ADC_Adc_INT.c ****                     CY_SET_REG32(CapSense_ADC_AdcINTR_MASK_PTR, CapSense_ADC_AdcINTERRUPT_SET);
 254              		.loc 1 203 0
 255 010c 1D4A     		ldr	r2, .L14+4
 256 010e 1360     		str	r3, [r2]
 204:Generated_Source\PSoC4/CapSense_ADC_Adc_INT.c ****                     CapSense_ADC_StartAdcFSM(CapSense_ADC_AdcMEASMODE_VIN);
 257              		.loc 1 204 0
 258 0110 C020     		movs	r0, #192
 259 0112 8002     		lsls	r0, r0, #10
 260 0114 FFF7FEFF 		bl	CapSense_ADC_StartAdcFSM
 261              	.LVL37:
 205:Generated_Source\PSoC4/CapSense_ADC_Adc_INT.c ****                     break;
 262              		.loc 1 205 0
 263 0118 2FE0     		b	.L1
 264              	.LVL38:
 265              	.L8:
 206:Generated_Source\PSoC4/CapSense_ADC_Adc_INT.c ****                     
 207:Generated_Source\PSoC4/CapSense_ADC_Adc_INT.c ****                 case CapSense_ADC_AdcSTATUS_CALIBPH3:
 208:Generated_Source\PSoC4/CapSense_ADC_Adc_INT.c ****                     /*
 209:Generated_Source\PSoC4/CapSense_ADC_Adc_INT.c ****                     * After the calibration phase 3 will define a time to discharge Cref1 and Cref2
 210:Generated_Source\PSoC4/CapSense_ADC_Adc_INT.c ****                     * a sinking. This time must be corrected to an Idac_sourcing/Idac_sinking misma
 211:Generated_Source\PSoC4/CapSense_ADC_Adc_INT.c ****                     * Calculates t_full, checks it for a target and recalibrate Idac if necessary. 
 212:Generated_Source\PSoC4/CapSense_ADC_Adc_INT.c ****                     */
 213:Generated_Source\PSoC4/CapSense_ADC_Adc_INT.c ****                     /* Reconnect amuxbusB, disconnect VDDA */
 214:Generated_Source\PSoC4/CapSense_ADC_Adc_INT.c ****                     CY_SET_REG32(CapSense_ADC_AdcSW_SHIELD_SEL_PTR, CapSense_ADC_AdcSW_SHIELD_DEFAU
 266              		.loc 1 214 0
 267 011a 0025     		movs	r5, #0
 268              	.LVL39:
 269 011c 204B     		ldr	r3, .L14+32
 270              	.LVL40:
 271 011e 1D60     		str	r5, [r3]
 215:Generated_Source\PSoC4/CapSense_ADC_Adc_INT.c ****                     
 216:Generated_Source\PSoC4/CapSense_ADC_Adc_INT.c ****                     interruptState = CyEnterCriticalSection();
 272              		.loc 1 216 0
 273 0120 FFF7FEFF 		bl	CyEnterCriticalSection
 274              	.LVL41:
 217:Generated_Source\PSoC4/CapSense_ADC_Adc_INT.c ****                     newRegValue = CY_GET_REG32(CapSense_ADC_AdcSW_BYP_SEL_PTR);
 275              		.loc 1 217 0
 276 0124 1C4A     		ldr	r2, .L14+24
 277 0126 1368     		ldr	r3, [r2]
 278              	.LVL42:
 218:Generated_Source\PSoC4/CapSense_ADC_Adc_INT.c ****                     newRegValue |= CapSense_ADC_AdcSW_BYP_DEFAULT;
 279              		.loc 1 218 0
 280 0128 8821     		movs	r1, #136
 281 012a 4903     		lsls	r1, r1, #13
 282 012c 0B43     		orrs	r3, r1
 283              	.LVL43:
 219:Generated_Source\PSoC4/CapSense_ADC_Adc_INT.c ****                     CY_SET_REG32(CapSense_ADC_AdcSW_BYP_SEL_PTR, newRegValue);
 284              		.loc 1 219 0
 285 012e 1360     		str	r3, [r2]
 220:Generated_Source\PSoC4/CapSense_ADC_Adc_INT.c ****                     CyExitCriticalSection(interruptState);
 286              		.loc 1 220 0
 287 0130 FFF7FEFF 		bl	CyExitCriticalSection
 288              	.LVL44:
 221:Generated_Source\PSoC4/CapSense_ADC_Adc_INT.c ****                     
 222:Generated_Source\PSoC4/CapSense_ADC_Adc_INT.c ****                     tVdda2Vref = (uint16)tmpResult;
 289              		.loc 1 222 0
ARM GAS  C:\Users\CHUNGN~1\AppData\Local\Temp\ccK4RJCg.s 			page 10


 290 0134 A0B2     		uxth	r0, r4
 291 0136 164E     		ldr	r6, .L14+16
 223:Generated_Source\PSoC4/CapSense_ADC_Adc_INT.c ****                     /* Calibrate tVdda2Vref with Sink/Source mismatch with rounding*/
 224:Generated_Source\PSoC4/CapSense_ADC_Adc_INT.c ****                     tVdda2Vref = (uint16)(((((uint32)tVdda2Vref << 1u) * tRecover) + ((uint32)tVssa
 292              		.loc 1 224 0
 293 0138 4400     		lsls	r4, r0, #1
 294              	.LVL45:
 295 013a B088     		ldrh	r0, [r6, #4]
 296 013c 6043     		muls	r0, r4
 297 013e 3788     		ldrh	r7, [r6]
 298 0140 7C08     		lsrs	r4, r7, #1
 299 0142 0019     		adds	r0, r0, r4
 300 0144 3900     		movs	r1, r7
 301 0146 FFF7FEFF 		bl	__aeabi_uidiv
 302              	.LVL46:
 303 014a 83B2     		uxth	r3, r0
 304 014c F380     		strh	r3, [r6, #6]
 225:Generated_Source\PSoC4/CapSense_ADC_Adc_INT.c ****                     /* Test whether the full range is 2-bits higher than adc resolution */
 226:Generated_Source\PSoC4/CapSense_ADC_Adc_INT.c ****                     tFull = (tVssa2Vref + tVdda2Vref);
 305              		.loc 1 226 0
 306 014e FA18     		adds	r2, r7, r3
 307 0150 7280     		strh	r2, [r6, #2]
 227:Generated_Source\PSoC4/CapSense_ADC_Adc_INT.c ****                     vMax_mV = CapSense_ADC_AdcVref_mV +
 228:Generated_Source\PSoC4/CapSense_ADC_Adc_INT.c ****                             (((CapSense_ADC_AdcVref_mV * tVdda2Vref) + (tVssa2Vref >> 1uL)) / tVssa
 308              		.loc 1 228 0
 309 0152 144A     		ldr	r2, .L14+36
 310 0154 1288     		ldrh	r2, [r2]
 311 0156 9046     		mov	r8, r2
 312 0158 5343     		muls	r3, r2
 313 015a 1819     		adds	r0, r3, r4
 314 015c 3900     		movs	r1, r7
 315 015e FFF7FEFF 		bl	__aeabi_idiv
 316              	.LVL47:
 227:Generated_Source\PSoC4/CapSense_ADC_Adc_INT.c ****                     vMax_mV = CapSense_ADC_AdcVref_mV +
 317              		.loc 1 227 0
 318 0162 4044     		add	r0, r0, r8
 319 0164 3081     		strh	r0, [r6, #8]
 229:Generated_Source\PSoC4/CapSense_ADC_Adc_INT.c **** 
 230:Generated_Source\PSoC4/CapSense_ADC_Adc_INT.c ****                     CapSense_ADC_dsRam.adcStatus = CapSense_ADC_AdcSTATUS_IDLE;
 320              		.loc 1 230 0
 321 0166 094B     		ldr	r3, .L14+12
 322 0168 1D77     		strb	r5, [r3, #28]
 231:Generated_Source\PSoC4/CapSense_ADC_Adc_INT.c **** 
 232:Generated_Source\PSoC4/CapSense_ADC_Adc_INT.c ****                     break;
 323              		.loc 1 232 0
 324 016a 06E0     		b	.L1
 325              	.LVL48:
 326              	.L3:
 233:Generated_Source\PSoC4/CapSense_ADC_Adc_INT.c **** 
 234:Generated_Source\PSoC4/CapSense_ADC_Adc_INT.c ****             #endif /* (CapSense_ADC_ADC_FULLRANGE_MODE == CapSense_ADC_ADC_MEASURE_MODE) */
 235:Generated_Source\PSoC4/CapSense_ADC_Adc_INT.c **** 
 236:Generated_Source\PSoC4/CapSense_ADC_Adc_INT.c ****             default:
 237:Generated_Source\PSoC4/CapSense_ADC_Adc_INT.c ****                 /* If interrupt is called without defined ADC state, do nothing. */
 238:Generated_Source\PSoC4/CapSense_ADC_Adc_INT.c ****                 break;
 239:Generated_Source\PSoC4/CapSense_ADC_Adc_INT.c ****             }
 240:Generated_Source\PSoC4/CapSense_ADC_Adc_INT.c ****         }
 241:Generated_Source\PSoC4/CapSense_ADC_Adc_INT.c ****         else
ARM GAS  C:\Users\CHUNGN~1\AppData\Local\Temp\ccK4RJCg.s 			page 11


 242:Generated_Source\PSoC4/CapSense_ADC_Adc_INT.c ****         {
 243:Generated_Source\PSoC4/CapSense_ADC_Adc_INT.c ****             CapSense_ADC_dsRam.adcStatus = CapSense_ADC_AdcSTATUS_OVERFLOW;
 327              		.loc 1 243 0
 328 016c 8022     		movs	r2, #128
 329 016e 074B     		ldr	r3, .L14+12
 330 0170 1A77     		strb	r2, [r3, #28]
 331 0172 02E0     		b	.L1
 332              	.L2:
 244:Generated_Source\PSoC4/CapSense_ADC_Adc_INT.c ****         }
 245:Generated_Source\PSoC4/CapSense_ADC_Adc_INT.c ****     }
 246:Generated_Source\PSoC4/CapSense_ADC_Adc_INT.c ****     else
 247:Generated_Source\PSoC4/CapSense_ADC_Adc_INT.c ****     {
 248:Generated_Source\PSoC4/CapSense_ADC_Adc_INT.c ****         CapSense_ADC_dsRam.adcStatus = CapSense_ADC_AdcSTATUS_IDLE;
 333              		.loc 1 248 0
 334 0174 0022     		movs	r2, #0
 335 0176 054B     		ldr	r3, .L14+12
 336 0178 1A77     		strb	r2, [r3, #28]
 337              	.LVL49:
 338              	.L1:
 249:Generated_Source\PSoC4/CapSense_ADC_Adc_INT.c ****     }
 250:Generated_Source\PSoC4/CapSense_ADC_Adc_INT.c ****     #ifdef CapSense_ADC_ADC_EXIT_CALLBACK
 251:Generated_Source\PSoC4/CapSense_ADC_Adc_INT.c ****         CapSense_ADC_AdcExitCallback();
 252:Generated_Source\PSoC4/CapSense_ADC_Adc_INT.c ****     #endif /* CapSense_ADC_ADC_EXIT_CALLBACK */
 253:Generated_Source\PSoC4/CapSense_ADC_Adc_INT.c **** }
 339              		.loc 1 253 0
 340              		@ sp needed
 341 017a 04BC     		pop	{r2}
 342 017c 9046     		mov	r8, r2
 343 017e F0BD     		pop	{r4, r5, r6, r7, pc}
 344              	.L15:
 345              		.align	2
 346              	.L14:
 347 0180 F0000B40 		.word	1074462960
 348 0184 F8000B40 		.word	1074462968
 349 0188 E0000B40 		.word	1074462944
 350 018c 00000000 		.word	CapSense_ADC_dsRam
 351 0190 00000000 		.word	.LANCHOR0
 352 0194 FF030000 		.word	1023
 353 0198 94020B40 		.word	1074463380
 354 019c FFFFEEFF 		.word	-1114113
 355 01a0 88020B40 		.word	1074463368
 356 01a4 00000000 		.word	CapSense_ADC_AdcVref_mV
 357              		.cfi_endproc
 358              	.LFE1:
 359              		.size	CapSense_ADC_AdcIntrHandler, .-CapSense_ADC_AdcIntrHandler
 360              		.bss
 361              		.align	1
 362              		.set	.LANCHOR0,. + 0
 363              		.type	tVssa2Vref.5037, %object
 364              		.size	tVssa2Vref.5037, 2
 365              	tVssa2Vref.5037:
 366 0000 0000     		.space	2
 367              		.type	tFull.5038, %object
 368              		.size	tFull.5038, 2
 369              	tFull.5038:
 370 0002 0000     		.space	2
 371              		.type	tRecover.5047, %object
ARM GAS  C:\Users\CHUNGN~1\AppData\Local\Temp\ccK4RJCg.s 			page 12


 372              		.size	tRecover.5047, 2
 373              	tRecover.5047:
 374 0004 0000     		.space	2
 375              		.type	tVdda2Vref.5046, %object
 376              		.size	tVdda2Vref.5046, 2
 377              	tVdda2Vref.5046:
 378 0006 0000     		.space	2
 379              		.type	vMax_mV.5039, %object
 380              		.size	vMax_mV.5039, 2
 381              	vMax_mV.5039:
 382 0008 0000     		.space	2
 383              		.text
 384              	.Letext0:
 385              		.file 2 "Generated_Source\\PSoC4\\cytypes.h"
 386              		.file 3 "Generated_Source\\PSoC4\\CapSense_ADC_Configuration.h"
 387              		.file 4 "Generated_Source\\PSoC4\\CapSense_ADC_Structure.h"
 388              		.file 5 "Generated_Source\\PSoC4\\CapSense_ADC_Adc.h"
 389              		.file 6 "Generated_Source\\PSoC4\\CyLib.h"
